17102019100001004599099SUITS                         PT 2 PC SUIT-FB48T/M56   ASSORTED       One Size  NNNN01    01SUITS                         99Menswear                      92Pick USA stk from w/h 92 only 59SUMMERISHEREO 2019            99 SECONDS DG AND BD   99 1  1  ML1 Swing Tickets            1 2000MO  TROJACO   TROJACO                1   1       Single1       Single1       Single0001MW SUITS CORE       01NEW MW SUITING      1 NEW MW MIN SUITING                      2       P25922           0     NNPT 2 PC SUIT-FB48T/M56   0        0 NN2627300       2627300    2890000        2627300    104500   104500   1111201610062019181120162607201900000000     N0         SS10      SS10                     GRP 1     GRP 1                    AAAA      Not set                  AAAA      Not set                  MAMOROCCO                  AAAA      Not set                  1         MAINLINE                 AAAA      Not set                  AAAA      Not set                  ZZZZ      NOT USED                 ZZZZ      NOT USED                 07 2 BUTT 2 BUTTON                 ZZZZ      NOT USED                 03        MENSWEAR                 N WORKING NON WORKING CUFF         ZZZZ      NOT USED                 ZZZZ      NOT USED                 ZZZZ      NOT USED                 SS        SS                       01        Suits                    11-01-01  W JERSEYWEAR             1011100   FORMAL BUSINESS MENS     2627300    104500   61000     General Clothing         Y5052901783082   274000   274000   209500   209500   149500   149500   149500   149500   149500   149500   1568000  1568000  149500   149500   94200    94200    149500   149500   8980000  8980000  196500   196500   149500   149500   212000   212000   196500   196500   N                                                                                                                                                                                                        
17102019100001004699099SUITS                         PT 2 PC SUIT-FB57T/M64   ASSORTED       One Size  NNNN01    01SUITS                         99Menswear                      92Pick USA stk from w/h 92 only 59WINTERISCOMIN 2019            99 SECONDS DG AND BD   99 1  1  ML1 Swing Tickets            1 2000MO  TROJACO   TROJACO                1   1       Single1       Single1       Single0001MW SUITS CORE       01NEW MW SUITING      1 NEW MW MIN SUITING                      2       P25923           0     NNPT 2 PC SUIT-FB57T/M64   0        0 NN2786400       2786400    3065000        2786400    104500   104500   2610201614082019031120160809201900000000     N0         SS19      SS19                     PT        pt                       PT        PERSONAL TAILORING       PT        PT                       MAMOROCCO                  PT        Personal Tailoring       1         MAINLINE                 EXIT      EXIT                     PLAIN     PLAIN                    ZZZZ      NOT USED                 ZZZZ      NOT USED                 PT        PT                       PT        PERSONAL TAILORING       03        MENSWEAR                 PT        pt                       PT        PT                       ZZZZ      NOT USED                 ZZZZ      NOT USED                 AW        AW                       01        Suits                    11-01-01  W JERSEYWEAR             1011100   FORMAL BUSINESS MENS     2786400    104500   61000     General Clothing         Y5052901783099   274000   274000   209500   209500   149500   149500   149500   149500   149500   149500   1568000  1568000  149500   149500   94200    94200    149500   149500   8980000  8980000  196500   196500   149500   149500   212000   212000   196500   196500   N                                                                                                                                                                                                        
17102019100001004799099SUITS                         PT2PCSUIT+TRS-FB15T/M20  ASSORTED       One Size  NNNN01    01SUITS                         99Menswear                      92Pick USA stk from w/h 92 only 59AUTUMN/WINTER 2019            99 SECONDS DG AND BD   99 1  1  ML1 Swing Tickets            1 2000MO  TROJACO   TROJACO                1   1       Single1       Single1       Single0001MW SUITS CORE       01NEW MW SUITING      1 NEW MW MIN SUITING                      2       P25928           0     NNPT2PCSUIT+TRS-FB15T/M20  0        0 NN2353174       2353174    2965000        2353174    104500   104500                   011120161110201900000000     N0         SS19      SS19                     PT        pt                       PT        PERSONAL TAILORING       PT        PT                       MAMOROCCO                  PT        Personal Tailoring       1         MAINLINE                 EXIT      EXIT                     ZZZZ      NOT USED                 ZZZZ      NOT USED                 ZZZZ      NOT USED                 PT        PT                       PT        PERSONAL TAILORING       03        MENSWEAR                 PT        pt                       PT        PT                       ZZZZ      NOT USED                 ZZZZ      NOT USED                 AW        AW                       01        Suits                    95-01-00  PT TWO PIECE SUIT        1011100   FORMAL BUSINESS MENS     0          104500   61000     General Clothing         Y5052901783105   274000   274000   209500   209500   149500   149500   149500   149500   149500   149500   1568000  1568000  149500   149500   94200    94200    149500   149500   8980000  8980000  196500   196500   149500   149500   212000   212000   196500   196500   N                                                                                                                                                                                                        
17102019100001004899099SUITS                         PT2PCSUIT+TRS-FB21T/M29  ASSORTED       One Size  NNNN01    01SUITS                         99Menswear                      92Pick USA stk from w/h 92 only 59AUTUMN/WINTER 2019            99 SECONDS DG AND BD   99 1  1  ML1 Swing Tickets            1 2000MO  TROJACO   TROJACO                1   1       Single1       Single1       Single0001MW SUITS CORE       01NEW MW SUITING      1 NEW MW MIN SUITING                      2       P25929           0     NNPT2PCSUIT+TRS-FB21T/M29  0        0 NN2511904       2511904    3165000        2511904    104500   104500                   271020160208201900000000     N0         SS19      SS19                     PT        pt                       PT        PERSONAL TAILORING       PT        PT                       MAMOROCCO                  PT        Personal Tailoring       1         MAINLINE                 EXIT      EXIT                     ZZZZ      NOT USED                 ZZZZ      NOT USED                 ZZZZ      NOT USED                 PT        PT                       PT        PERSONAL TAILORING       03        MENSWEAR                 PT        pt                       PT        PT                       ZZZZ      NOT USED                 ZZZZ      NOT USED                 AW        AW                       01        Suits                    95-01-00  PT TWO PIECE SUIT        1011100   FORMAL BUSINESS MENS     0          104500   61000     General Clothing         Y5052901783112   274000   274000   209500   209500   149500   149500   149500   149500   149500   149500   1568000  1568000  149500   149500   94200    94200    149500   149500   8980000  8980000  196500   196500   149500   149500   212000   212000   196500   196500   N                                                                                                                                                                                                        
17102019100001004999099SUITS                         PT3PC SUIT-FB15T/M20     ASSORTED       One Size  NNNN01    01SUITS                         99Menswear                      92Pick USA stk from w/h 92 only 59AUTUMN/WINTER 2019            99 SECONDS DG AND BD   99 1  1  ML1 Swing Tickets            1 2000MO  TROJACO   TROJACO                1   1       Single1       Single1       Single0001MW SUITS CORE       01NEW MW SUITING      1 NEW MW MIN SUITING                      2       P25930           0     NNPT3PC SUIT-FB15T/M20     0        0 NN2627304       2627300    2890000        2627300    104500   104500   0211201608102019171120160510201900000000     N0         SS19      SS19                     PT        pt                       PT        PERSONAL TAILORING       PT        PT                       MAMOROCCO                  PT        Personal Tailoring       1         MAINLINE                 EXIT      EXIT                     ZZZZ      NOT USED                 ZZZZ      NOT USED                 ZZZZ      NOT USED                 PT        PT                       PT        PERSONAL TAILORING       03        MENSWEAR                 PT        pt                       PT        PT                       ZZZZ      NOT USED                 ZZZZ      NOT USED                 AW        AW                       01        Suits                    95-01-01  PT THREE PIECE SUIT      1011100   FORMAL BUSINESS MENS     2627300    104500   61000     General Clothing         Y5052901783129   274000   274000   209500   209500   149500   149500   149500   149500   149500   149500   1568000  1568000  149500   149500   94200    94200    149500   149500   8980000  8980000  196500   196500   149500   149500   212000   212000   196500   196500   N                                                                                                                                                                                                        
17102019100001005199099SUITS                         PT3PC SUIT-FB21T/M29     ASSORTED       One Size  NNNN01    01SUITS                         99Menswear                      92Pick USA stk from w/h 92 only 59AUTUMN/WINTER 2019            99 SECONDS DG AND BD   99 1  1  ML1 Swing Tickets            1 2000MO  TROJACO   TROJACO                1   1       Single1       Single1       Single0001MW SUITS CORE       01NEW MW SUITING      1 NEW MW MIN SUITING                      2       P25931           0     NNPT3PC SUIT-FB21T/M29     0        0 NN2790901       2790900    3070000        2790900    104500   104500   0912201623092019080220170210201900000000     N0         SS19      SS19                     PT        pt                       PT        PERSONAL TAILORING       PT        PT                       MAMOROCCO                  PT        Personal Tailoring       1         MAINLINE                 EXIT      EXIT                     ZZZZ      NOT USED                 ZZZZ      NOT USED                 ZZZZ      NOT USED                 PT        PT                       PT        PERSONAL TAILORING       03        MENSWEAR                 PT        pt                       PT        PT                       ZZZZ      NOT USED                 ZZZZ      NOT USED                 AW        AW                       01        Suits                    95-01-01  PT THREE PIECE SUIT      1011100   FORMAL BUSINESS MENS     2790900    104500   61000     General Clothing         Y5052901783136   274000   274000   209500   209500   149500   149500   149500   149500   149500   149500   1568000  1568000  149500   149500   94200    94200    149500   149500   8980000  8980000  196500   196500   149500   149500   212000   212000   196500   196500   N                                                                                                                                                                                                        
17102019100001005299099SUITS                         PT3PC SUIT-FB30T/M38     ASSORTED       One Size  NNNN01    01SUITS                         99Menswear                      92Pick USA stk from w/h 92 only 59AUTUMN/WINTER 2019            99 SECONDS DG AND BD   99 1  1  ML1 Swing Tickets            1 2000MO  TROJACO   TROJACO                1   1       Single1       Single1       Single0001MW SUITS CORE       01NEW MW SUITING      1 NEW MW MIN SUITING                      2       P25932           0     NNPT3PC SUIT-FB30T/M38     0        0 NN2995500       2995500    3295000        2995500    104500   104500   2610201620052019011020161106201900000000     N0         SS19      SS19                     PT        pt                       PT        PERSONAL TAILORING       PT        PT                       MAMOROCCO                  PT        Personal Tailoring       1         MAINLINE                 EXIT      EXIT                     ZZZZ      NOT USED                 ZZZZ      NOT USED                 ZZZZ      NOT USED                 PT        PT                       PT        PERSONAL TAILORING       03        MENSWEAR                 PT        pt                       PT        PT                       ZZZZ      NOT USED                 ZZZZ      NOT USED                 AW        AW                       01        Suits                    95-01-01  PT THREE PIECE SUIT      1011100   FORMAL BUSINESS MENS     2995500    104500   61000     General Clothing         Y5052901783143   274000   274000   209500   209500   149500   149500   149500   149500   149500   149500   1568000  1568000  149500   149500   94200    94200    149500   149500   8980000  8980000  196500   196500   149500   149500   212000   212000   196500   196500   N                                                                                                                                                                                                        
17102019100001074599099SUITS                         PT 2 PC SUIT-FB7T/M9     ASSORTED       One Size  NNNN01    01SUITS                         99Menswear                      92Pick USA stk from w/h 92 only 59AUTUMN/WINTER 2019            99 SECONDS DG AND BD   99 1  1  ML1 Swing Tickets            1 2000MO  TROJACO   TROJACO                1   1       Single1       Single1       Single0001MW SUITS CORE       01NEW MW SUITING      1 NEW MW MIN SUITING                      2       P25979           0     NNPT 2 PC SUIT-FB7T/M9     0        0 NN1895500       1895500    2085000        1895500    74500    74500    2405201702042019050620172805201900000000     N0         SS19      SS19                     PT        pt                       PT        PERSONAL TAILORING       PT        PT                       MAMOROCCO                  PT        Personal Tailoring       1         MAINLINE                 EXIT      EXIT                     AAAA      Not set                  ZZZZ      NOT USED                 ZZZZ      NOT USED                 PT        PT                       PT        PERSONAL TAILORING       03        MENSWEAR                 PT        pt                       PT        PT                       ZZZZ      NOT USED                 ZZZZ      NOT USED                 AW        AW                       01        Suits                    11-01-01  W JERSEYWEAR             1011100   FORMAL BUSINESS MENS     1895500    74500    61000     General Clothing         Y5052901783198   196000   196000   149500   149500   106500   106500   106500   106500   106500   106500   1118000  1118000  106500   106500   67200    67200    106500   106500   6400000  6400000  140500   140500   106500   106500   151000   151000   139500   139500   N                                                                                                                                                                                                        
17102019100001074699099SUITS                         PT 2 PC SUIT-FB10T/M14   ASSORTED       One Size  NNNN01    01SUITS                         99Menswear                      92Pick USA stk from w/h 92 only 59AUTUMN/WINTER 2019            99 SECONDS DG AND BD   99 1  1  ML1 Swing Tickets            1 2000MO  TROJACO   TROJACO                1   1       Single1       Single1       Single0001MW SUITS CORE       01NEW MW SUITING      1 NEW MW MIN SUITING                      2       P25980           0     NNPT 2 PC SUIT-FB10T/M14   0        0 NN1959100       1959100    2155000        1959100    74500    74500    0704201725072019090620172009201900000000     N0         SS19      SS19                     PT        pt                       PT        PERSONAL TAILORING       PT        PT                       MAMOROCCO                  PT        Personal Tailoring       1         MAINLINE                 EXIT      EXIT                     ZZZZ      NOT USED                 ZZZZ      NOT USED                 ZZZZ      NOT USED                 PT        PT                       PT        PERSONAL TAILORING       03        MENSWEAR                 PT        pt                       PT        PT                       ZZZZ      NOT USED                 ZZZZ      NOT USED                 AW        AW                       01        Suits                    11-01-01  W JERSEYWEAR             1011100   FORMAL BUSINESS MENS     1959100    74500    61000     General Clothing         Y5052901783204   196000   196000   149500   149500   106500   106500   106500   106500   106500   106500   1118000  1118000  106500   106500   67200    67200    106500   106500   6400000  6400000  140500   140500   106500   106500   151000   151000   139500   139500   N                                                                                                                                                                                                        
17102019100001084599099SUITS                         PT 2 PC SUIT-FB15T/M20   ASSORTED       One Size  NNNN01    01SUITS                         99Menswear                      92Pick USA stk from w/h 92 only 59LANNISTERSPAY 2019            99 SECONDS DG AND BD   99 1  1  ML1 Swing Tickets            1 2000MO  TROJACO   TROJACO                1   1       Single1       Single1       Single0001MW SUITS CORE       01NEW MW SUITING      1 NEW MW MIN SUITING                      2       P25983           0     NNPT 2 PC SUIT-FB15T/M20   0        0 NN2790933       2790900    2260000        2790900    84500    84500    2610201604102019110920162609201900000000     N0         SS19      SS19                     PT        pt                       PT        PERSONAL TAILORING       PT        PT                       MAMOROCCO                  PT        Personal Tailoring       1         MAINLINE                 EXIT      EXIT                     ZZZZ      NOT USED                 ZZZZ      NOT USED                 ZZZZ      NOT USED                 PT        PT                       PT        PERSONAL TAILORING       03        MENSWEAR                 PT        pt                       PT        PT                       ZZZZ      NOT USED                 ZZZZ      NOT USED                 AW        AW                       01        Suits                    11-01-01  W JERSEYWEAR             1011100   FORMAL BUSINESS MENS     2790900    84500    61000     General Clothing         Y5052901783235   222000   222000   169500   169500   119500   119500   119500   119500   119500   119500   1268000  1268000  119500   119500   76200    76200    119500   119500   7260000  7260000  159000   159000   119500   119500   171500   171500   159000   159000   N                                                                                                                                                                                                        
17102019100001084699099SUITS                         PT 2 PC SUIT-FB21T/M29   ASSORTED       One Size  NNNN01    01SUITS                         99Menswear                      92Pick USA stk from w/h 92 only 59AUTUMN/WINTER 2019            99 SECONDS DG AND BD   99 1  1  ML1 Swing Tickets            1 2000MO  TROJACO   TROJACO                1   1       Single1       Single1       Single0001MW SUITS CORE       01NEW MW SUITING      1 NEW MW MIN SUITING                      2       P25984           0     NNPT 2 PC SUIT-FB21T/M29   0        0 NN2182505       2181800    2400000        2181800    84500    84500    2610201619082019061120163108201900000000     N0         SS19      SS19                     PT        pt                       PT        PERSONAL TAILORING       PT        PT                       MAMOROCCO                  PT        Personal Tailoring       1         MAINLINE                 EXIT      EXIT                     ZZZZ      NOT USED                 ZZZZ      NOT USED                 ZZZZ      NOT USED                 PT        PT                       PT        PERSONAL TAILORING       03        MENSWEAR                 PT        pt                       PT        PT                       ZZZZ      NOT USED                 ZZZZ      NOT USED                 AW        AW                       01        Suits                    11-01-01  W JERSEYWEAR             1011100   FORMAL BUSINESS MENS     2181800    84500    61000     General Clothing         Y5052901783242   222000   222000   169500   169500   119500   119500   119500   119500   119500   119500   1268000  1268000  119500   119500   76200    76200    119500   119500   7260000  7260000  159000   159000   119500   119500   171500   171500   159000   159000   N                                                                                                                                                                                                        
17102019100001084999099SUITS                         PT3PC SUIT-FB00          ASSORTED       One Size  NNNN01    01SUITS                         99Menswear                      92Pick USA stk from w/h 92 only 59AUTUMN/WINTER 2019            99 SECONDS DG AND BD   99 1  1  ML1 Swing Tickets            1 2000MO  TROJACO   TROJACO                1   1       Single1       Single1       Single0001MW SUITS CORE       01NEW MW SUITING      1 NEW MW MIN SUITING                      2       P25987           0     NNPT3PC SUIT-FB00          0        0 NN1931800       1931800    2125000        1931800    84500    84500    2606201809042019150520172205201900000000     N0         SS19      SS19                     PT        pt                       PT        PERSONAL TAILORING       PT        PT                       MAMOROCCO                  PT        Personal Tailoring       1         MAINLINE                 EXIT      EXIT                     ZZZZ      NOT USED                 ZZZZ      NOT USED                 ZZZZ      NOT USED                 PT        PT                       PT        PERSONAL TAILORING       03        MENSWEAR                 PT        pt                       PT        PT                       ZZZZ      NOT USED                 ZZZZ      NOT USED                 AW        AW                       01        Suits                    95-01-01  PT THREE PIECE SUIT      1011100   FORMAL BUSINESS MENS     1931800    84500    61000     General Clothing         Y5052901783273   222000   222000   169500   169500   119500   119500   119500   119500   119500   119500   1268000  1268000  119500   119500   76200    76200    119500   119500   7260000  7260000  159000   159000   119500   119500   171500   171500   159000   159000   N                                                                                                                                                                                                        
17102019100001085199099SUITS                         PT3PC SUIT-FB1T/M6       NOTASSOR       One Size  NNNN01    01SUITS                         99Menswear                      92Pick USA stk from w/h 92 only 59AUTUMN/WINTER 2019            99 SECONDS DG AND BD   99 1  1  ML1 Swing Tickets            1 2000MO  TROJACO   TROJACO                1   1       Single1       Single1       Single0001MW SUITS CORE       01NEW MW SUITING      1 NEW MW MIN SUITING                      2       P25988           0     NNPT3PC SUIT-FB1T/M6       0        0 NN2263600       2263600    2440000        2263600    84500    84500    2610201604092018271020162908201800000000     N0         SS19      SS19                     PT        pt                       PT        PERSONAL TAILORING       PT        PT                       MAMOROCCO                  PT        Personal Tailoring       1         MAINLINE                 EXIT      EXIT                     ZZZZ      NOT USED                 ZZZZ      NOT USED                 ZZZZ      NOT USED                 PT        PT                       PT        PERSONAL TAILORING       03        MENSWEAR                 PT        pt                       PT        PT                       ZZZZ      NOT USED                 ZZZZ      NOT USED                 AW        AW                       01        Suits                    95-01-01  PT THREE PIECE SUIT      1011100   FORMAL BUSINESS MENS     2263600    84500    61000     General Clothing         Y5052901783280   222000   222000   169500   169500   119500   119500   119500   119500   119500   119500   1268000  1268000  119500   119500   76200    76200    119500   119500   7260000  7260000  159000   159000   119500   119500   171500   171500   159000   159000   N                                                                                                                                                                                                        
17102019100001087899099SUITS                         PT3PCTUX-FB1T/M6         ASSORTED       One Size  NNNN01    01SUITS                         99Menswear                      92Pick USA stk from w/h 92 only 49SPRING/SUMMER 2019            99 SECONDS DG AND BD   99 1  1  ML1 Swing Tickets            1 2000MO  TROJACO   TROJACO                1   1       Single1       Single1       Single0001MW SUITS CORE       01NEW MW SUITING      1 NEW MW MIN SUITING                      2       P26048           0     NNPT3PCTUX-FB1T/M6         0        0 NN2174603       2174603    2740000        2174603    87500    87500                    290120182901201800000000     N0         SS19      SS19                     PT        pt                       AAAA      Not set                  AAAA      Not set                  MAMOROCCO                  AAAA      Not set                  1         MAINLINE                 AAAA      Not set                  AAAA      Not set                  ZZZZ      NOT USED                 ZZZZ      NOT USED                 07 2 BUTT 2 BUTTON                 ZZZZ      NOT USED                 03        MENSWEAR                 PT        pt                       ZZZZ      NOT USED                 ZZZZ      NOT USED                 ZZZZ      NOT USED                 SS        SS                       01        Suits                    95-01-01  PT THREE PIECE SUIT      1011100   FORMAL BUSINESS MENS     0          87500    61000     General Clothing         Y5052901783327   229500   229500   175500   175500   124500   124500   124500   124500   124500   124500   1313000  1313000  124500   124500   78900    78900    124500   124500   7520000  7520000  165000   165000   124500   124500   177500   177500   164500   164500   N                                                                                                                                                                                                        
17102019100001094599099SUITS                         PT 2 PC SUIT-FB30T/M38   ASSORTED       One Size  NNNN01    01SUITS                         99Menswear                      92Pick USA stk from w/h 92 only 59AUTUMN/WINTER 2019            99 SECONDS DG AND BD   99 1  1  ML1 Swing Tickets            1 2000MO  TROJACO   TROJACO                1   1       Single1       Single1       Single0001MW SUITS CORE       01NEW MW SUITING      1 NEW MW MIN SUITING                      2       P26049           0     NNPT 2 PC SUIT-FB30T/M38   0        0 NN2340900       2340900    2575000        2340900    94500    94500    2706201720052019100820172705201900000000     N0         SS19      SS19                     PT        pt                       ZZZZ      NOT USED                 AAAA      Not set                  MAMOROCCO                  AAAA      Not set                  1         MAINLINE                 EXIT      EXIT                     ZZZZ      NOT USED                 ZZZZ      NOT USED                 ZZZZ      NOT USED                 PT        PT                       ZZZZ      NOT USED                 03        MENSWEAR                 PT        pt                       PT        PT                       ZZZZ      NOT USED                 ZZZZ      NOT USED                 SS        SS                       01        Suits                    11-01-01  W JERSEYWEAR             1011100   FORMAL BUSINESS MENS     2340900    94500    61000     General Clothing         Y5052901783334   249500   249500   189500   189500   134500   134500   134500   134500   134500   134500   1418000  1418000  134500   134500   85200    85200    134500   134500   8120000  8120000  178000   178000   134500   134500   191500   191500   178000   178000   N                                                                                                                                                                                                        
17102019100001094699099SUITS                         PT 2 PC SUIT-FB39T/M47   ASSORTED       One Size  NNNN01    01SUITS                         99Menswear                      92Pick USA stk from w/h 92 only 59AUTUMN/WINTER 2019            99 SECONDS DG AND BD   99 1  1  ML1 Swing Tickets            1 2000MO  TROJACO   TROJACO                1   1       Single1       Single1       Single0001MW SUITS CORE       01NEW MW SUITING      1 NEW MW MIN SUITING                      2       P26150           0     NNPT 2 PC SUIT-FB39T/M47   0        0 NN2284400       2284400    2715000        2284400    94500    94500    2610201601062018040120171506201900000000     N0         SS19      SS19                     PT        pt                       PT        PERSONAL TAILORING       PT        PT                       MAMOROCCO                  PT        Personal Tailoring       1         MAINLINE                 EXIT      EXIT                     ZZZZ      NOT USED                 ZZZZ      NOT USED                 ZZZZ      NOT USED                 PT        PT                       PT        PERSONAL TAILORING       03        MENSWEAR                 PT        pt                       PT        PT                       ZZZZ      NOT USED                 ZZZZ      NOT USED                 AW        AW                       01        Suits                    11-01-01  W JERSEYWEAR             1011100   FORMAL BUSINESS MENS     2284400    94500    61000     General Clothing         Y5052901783341   249500   249500   189500   189500   134500   134500   134500   134500   134500   134500   1418000  1418000  134500   134500   85200    85200    134500   134500   8120000  8120000  178000   178000   134500   134500   191500   191500   178000   178000   N                                                                                                                                                                                                        
17102019100001095199099SUITS                         PT3PC SUIT-FB10T/M14     ASSORTED       One Size  NNNN01    01SUITS                         99Menswear                      92Pick USA stk from w/h 92 only 59AUTUMN/WINTER 2019            99 SECONDS DG AND BD   99 1  1  ML1 Swing Tickets            1 2000MO  TROJACO   TROJACO                1   1       Single1       Single1       Single0001MW SUITS CORE       01NEW MW SUITING      1 NEW MW MIN SUITING                      2       P26264           0     NNPT3PC SUIT-FB10T/M14     0        0 NN2504500       2504500    2755000        2504500    94500    94500    0312201628022019130420173006201900000000     N0         SS19      SS19                     PT        pt                       PT        PERSONAL TAILORING       PT        PT                       MAMOROCCO                  PT        Personal Tailoring       1         MAINLINE                 EXIT      EXIT                     ZZZZ      NOT USED                 ZZZZ      NOT USED                 ZZZZ      NOT USED                 PT        PT                       PT        PERSONAL TAILORING       03        MENSWEAR                 PT        pt                       PT        PT                       ZZZZ      NOT USED                 ZZZZ      NOT USED                 AW        AW                       01        Suits                    95-01-01  PT THREE PIECE SUIT      1011100   FORMAL BUSINESS MENS     2504500    94500    61000     General Clothing         Y5052901783389   249500   249500   189500   189500   134500   134500   134500   134500   134500   134500   1418000  1418000  134500   134500   85200    85200    134500   134500   8120000  8120000  178000   178000   134500   134500   191500   191500   178000   178000   N                                                                                                                                                                                                        
17102019100001114899099SUITS                         PT3PC SUIT-FB48T/M56     ASSORTED       One Size  NNNN01    01SUITS                         99Menswear                      92Pick USA stk from w/h 92 only 59AUTUMN/WINTER 2019            99 SECONDS DG AND BD   99 1  1  ML1 Swing Tickets            1 2000MO  TROJACO   TROJACO                1   1       Single1       Single1       Single0001MW SUITS CORE       01NEW MW SUITING      1 NEW MW MIN SUITING                      2       P26339           0     NNPT3PC SUIT-FB48T/M56     0        0 NN3359100       3359100    3695000        3359100    114500   114500   0211201631072019080220171410201900000000     N0         SS19      SS19                     PT        pt                       PT        PERSONAL TAILORING       PT        PT                       MAMOROCCO                  PT        Personal Tailoring       ZZZZ      NOT USED                 EXIT      EXIT                     ZZZZ      NOT USED                 ZZZZ      NOT USED                 ZZZZ      NOT USED                 PT        PT                       PT        PERSONAL TAILORING       ZZZZ      NOT USED                 PT        pt                       PT        PT                       ZZZZ      NOT USED                 ZZZZ      NOT USED                 AW        AW                       01        Suits                    95-01-01  PT THREE PIECE SUIT      1011100   FORMAL BUSINESS MENS     3359100    114500   61000     General Clothing         Y5052901783501   302000   302000   229500   229500   163500   163500   163500   163500   163500   163500   1718000  1718000  163500   163500   103200   103200   163500   163500   9840000  9840000  215500   215500   163500   163500   232000   232000   214500   214500   N                                                                                                                                                                                                        
17102019100001124599099SUITS                         PT2PCSUIT+TRS-FB48T/M56  ASSORTED       One Size  NNNN01    01SUITS                         99Menswear                      92Pick USA stk from w/h 92 only 59AUTUMN/WINTER 2019            99 SECONDS DG AND BD   99 1  1  ML1 Swing Tickets            1 2000MO  TROJACO   TROJACO                1   1       Single1       Single1       Single0001MW SUITS CORE       01NEW MW SUITING      1 NEW MW MIN SUITING                      2       P26342           0     NNPT2PCSUIT+TRS-FB48T/M56  0        0 NN3067460       3067460    3865000        3067460    124500   124500                   300320172009201900000000     N0         SS19      SS19                     PT        pt                       PT        PERSONAL TAILORING       PT        PT                       MAMOROCCO                  PT        Personal Tailoring       1         MAINLINE                 EXIT      EXIT                     ZZZZ      NOT USED                 ZZZZ      NOT USED                 ZZZZ      NOT USED                 PT        PT                       PT        PERSONAL TAILORING       03        MENSWEAR                 PT        pt                       PT        PT                       ZZZZ      NOT USED                 ZZZZ      NOT USED                 AW        AW                       01        Suits                    95-01-00  PT TWO PIECE SUIT        1011100   FORMAL BUSINESS MENS     0          124500   61000     General Clothing         Y5052901783532   328000   328000   269500   269500   178000   178000   178000   178000   178000   178000   1868000  1868000  178000   178000   112300   112300   178000   178000   10700000 10700000 234500   234500   178000   178000   252500   252500   234500   234500   N                                                                                                                                                                                                        
17102019100001124799099SUITS                         PT3PC SUIT-FB57T/M64     ASSORTED       One Size  NNNN01    01SUITS                         99Menswear                      92Pick USA stk from w/h 92 only 59AUTUMN/WINTER 2019            99 SECONDS DG AND BD   99 1  1  ML1 Swing Tickets            1 2000MO  TROJACO   TROJACO                1   1       Single1       Single1       Single0001MW SUITS CORE       01NEW MW SUITING      1 NEW MW MIN SUITING                      2       P26344           0     NNPT3PC SUIT-FB57T/M64     0        0 NN3568200       3568200    3925000        3568200    124500   124500   0211201610062019191220160308201900000000     N0         SS19      SS19                     PT        pt                       PT        PERSONAL TAILORING       PT        PT                       MAMOROCCO                  PT        Personal Tailoring       ZZZZ      NOT USED                 EXIT      EXIT                     ZZZZ      NOT USED                 ZZZZ      NOT USED                 ZZZZ      NOT USED                 PT        PT                       PT        PERSONAL TAILORING       ZZZZ      NOT USED                 PT        pt                       PT        PT                       ZZZZ      NOT USED                 ZZZZ      NOT USED                 AW        AW                       01        Suits                    95-01-01  PT THREE PIECE SUIT      1011100   FORMAL BUSINESS MENS     3568200    124500   61000     General Clothing         Y5052901783556   328000   328000   269500   269500   178000   178000   178000   178000   178000   178000   1868000  1868000  178000   178000   112300   112300   178000   178000   10700000 10700000 234500   234500   178000   178000   252500   252500   234500   234500   N                                                                                                                                                                                                        
17102019100001201120036SUITS                         MAYFAIR-SB 1B PEAK 2 PC  BLACK          36        NNNN01    01SUITS                         99Menswear                      92Pick USA stk from w/h 92 only 59AUTUMN/WINTER 2019            99 SECONDS DG AND BD   99 1  1  ML1 Swing Tickets            1 2000MO  GURM01    GURMEN                 1   1       Single1       Single1       Single0001MW SUITS CORE       01NEW MW SUITING      1 NEW MW MIN SUITING                      3       P77121           0     NNMAYFAIR-MODERN FIT 2PC TU0        0 NN885553        884535     958800         884535     47500    47500    111220172106201916122017111020196203110000   N0         SS19      SS19                     TRANS     TRANS                    BLACK     BLACK                    AAAA      Not set                  TRTURKEY                   ESSENTIAL ESSENTIAL                1         MAINLINE                 ENTRY     ENTRY                    PLAIN     PLAIN                    ZZZZ      NOT USED                 ZZZZ      NOT USED                 SB        SINGLE BREASTED          MODERN FITMODERN FIT TAILORING     03        MENSWEAR                 ALL       All                      WOOL MIX  WOOL MIX                 PEAK      PEAK LAPEL               ZZZZ      NOT USED                 SS        SS                       01        Suits                    95-00-00  MW TWO PIECE SUIT        1011100   FORMAL BUSINESS MENS     884535     47500    61000     General Clothing         Y5052901989767   125000   125000   95000    95000    68000    68000    68000    68000    68000    68000    713000   713000   68000    68000    42900    42900    68000    68000    4080000  4080000  89500    89500    68000    68000    96500    96500    89500    89500    N                                                                                                                                                                                                        
17102019100001201120038SUITS                         MAYFAIR-SB 1B PEAK 2 PC  BLACK          38        NNNN01    01SUITS                         99Menswear                      92Pick USA stk from w/h 92 only 59AUTUMN/WINTER 2019            99 SECONDS DG AND BD   99 1  1  ML1 Swing Tickets            1 2000MO  GURM01    GURMEN                 1   1       Single1       Single1       Single0001MW SUITS CORE       01NEW MW SUITING      1 NEW MW MIN SUITING                      3       P77122           0     NNMAYFAIR-MODERN FIT 2PC TU0        0 NN885288        884536     958800         884536     47500    47500    111220172106201918122017151020196203110000   N0         SS19      SS19                     TRANS     TRANS                    BLACK     BLACK                    AAAA      Not set                  TRTURKEY                   ESSENTIAL ESSENTIAL                1         MAINLINE                 ENTRY     ENTRY                    PLAIN     PLAIN                    ZZZZ      NOT USED                 ZZZZ      NOT USED                 SB        SINGLE BREASTED          MODERN FITMODERN FIT TAILORING     03        MENSWEAR                 ALL       All                      WOOL MIX  WOOL MIX                 PEAK      PEAK LAPEL               ZZZZ      NOT USED                 SS        SS                       01        Suits                    95-00-00  MW TWO PIECE SUIT        1011100   FORMAL BUSINESS MENS     884536     47500    61000     General Clothing         Y5052901989774   125000   125000   95000    95000    68000    68000    68000    68000    68000    68000    713000   713000   68000    68000    42900    42900    68000    68000    4080000  4080000  89500    89500    68000    68000    96500    96500    89500    89500    N                                                                                                                                                                                                        
17102019100001201120040SUITS                         MAYFAIR-SB 1B PEAK 2 PC  BLACK          40        NNNN01    01SUITS                         99Menswear                      92Pick USA stk from w/h 92 only 59AUTUMN/WINTER 2019            99 SECONDS DG AND BD   99 1  1  ML1 Swing Tickets            1 2000MO  GURM01    GURMEN                 1   1       Single1       Single1       Single0001MW SUITS CORE       01NEW MW SUITING      1 NEW MW MIN SUITING                      3       P76892           0     NNMAYFAIR-MODERN FIT 2PC TU0        0 NN885353        884536     958800         884536     47500    47500    171120172106201916122017131020196203110000   N0         SS19      SS19                     TRANS     TRANS                    BLACK     BLACK                    AAAA      Not set                  TRTURKEY                   ESSENTIAL ESSENTIAL                1         MAINLINE                 ENTRY     ENTRY                    PLAIN     PLAIN                    ZZZZ      NOT USED                 ZZZZ      NOT USED                 SB        SINGLE BREASTED          MODERN FITMODERN FIT TAILORING     03        MENSWEAR                 ALL       All                      WOOL MIX  WOOL MIX                 PEAK      PEAK LAPEL               ZZZZ      NOT USED                 SS        SS                       01        Suits                    95-00-00  MW TWO PIECE SUIT        1011100   FORMAL BUSINESS MENS     884536     47500    61000     General Clothing         Y5052901989750   125000   125000   95000    95000    68000    68000    68000    68000    68000    68000    713000   713000   68000    68000    42900    42900    68000    68000    4080000  4080000  89500    89500    68000    68000    96500    96500    89500    89500    N                                                                                                                                                                                                        
17102019100001201120042SUITS                         MAYFAIR-SB 1B PEAK 2 PC  BLACK          42        NNNN01    01SUITS                         99Menswear                      92Pick USA stk from w/h 92 only 59AUTUMN/WINTER 2019            99 SECONDS DG AND BD   99 1  1  ML1 Swing Tickets            1 2000MO  GURM01    GURMEN                 1   1       Single1       Single1       Single0001MW SUITS CORE       01NEW MW SUITING      1 NEW MW MIN SUITING                      3       P77146           0     NNMAYFAIR-MODERN FIT 2PC TU0        0 NN885425        884535     958800         884535     47500    47500    111220172106201926122017171020196203110000   N0         SS19      SS19                     TRANS     TRANS                    BLACK     BLACK                    AAAA      Not set                  TRTURKEY                   ESSENTIAL ESSENTIAL                1         MAINLINE                 ENTRY     ENTRY                    PLAIN     PLAIN                    ZZZZ      NOT USED                 ZZZZ      NOT USED                 SB        SINGLE BREASTED          MODERN FITMODERN FIT TAILORING     03        MENSWEAR                 ALL       All                      WOOL MIX  WOOL MIX                 PEAK      PEAK LAPEL               ZZZZ      NOT USED                 SS        SS                       01        Suits                    95-00-00  MW TWO PIECE SUIT        1011100   FORMAL BUSINESS MENS     884535     47500    61000     General Clothing         Y5052901989781   125000   125000   95000    95000    68000    68000    68000    68000    68000    68000    713000   713000   68000    68000    42900    42900    68000    68000    4080000  4080000  89500    89500    68000    68000    96500    96500    89500    89500    N                                                                                                                                                                                                        
17102019100001201120044SUITS                         MAYFAIR-SB 1B PEAK 2 PC  BLACK          44        NNNN01    01SUITS                         99Menswear                      92Pick USA stk from w/h 92 only 59AUTUMN/WINTER 2019            99 SECONDS DG AND BD   99 1  1  ML1 Swing Tickets            1 2000MO  GURM01    GURMEN                 1   1       Single1       Single1       Single0001MW SUITS CORE       01NEW MW SUITING      1 NEW MW MIN SUITING                      3       P77170           0     NNMAYFAIR-MODERN FIT 2PC TU0        0 NN885033        884536     958800         884536     47500    47500    111220172106201931122017121020196203110000   N0         SS19      SS19                     TRANS     TRANS                    BLACK     BLACK                    AAAA      Not set                  TRTURKEY                   ESSENTIAL ESSENTIAL                1         MAINLINE                 ENTRY     ENTRY                    PLAIN     PLAIN                    ZZZZ      NOT USED                 ZZZZ      NOT USED                 SB        SINGLE BREASTED          MODERN FITMODERN FIT TAILORING     03        MENSWEAR                 ALL       All                      WOOL MIX  WOOL MIX                 PEAK      PEAK LAPEL               ZZZZ      NOT USED                 SS        SS                       01        Suits                    95-00-00  MW TWO PIECE SUIT        1011100   FORMAL BUSINESS MENS     884536     47500    61000     General Clothing         Y5052901989798   125000   125000   95000    95000    68000    68000    68000    68000    68000    68000    713000   713000   68000    68000    42900    42900    68000    68000    4080000  4080000  89500    89500    68000    68000    96500    96500    89500    89500    N                                                                                                                                                                                                        
17102019100001201120046SUITS                         MAYFAIR-SB 1B PEAK 2 PC  BLACK          46        NNNN01    01SUITS                         99Menswear                      92Pick USA stk from w/h 92 only 59AUTUMN/WINTER 2019            99 SECONDS DG AND BD   99 1  1  ML1 Swing Tickets            1 2000MO  GURM01    GURMEN                 1   1       Single1       Single1       Single0001MW SUITS CORE       01NEW MW SUITING      1 NEW MW MIN SUITING                      3       P77172           0     NNMAYFAIR-MODERN FIT 2PC TU0        0 NN884536        884536     958800         884536     47500    47500    111220172106201928012018081020196203110000   N0         SS19      SS19                     TRANS     TRANS                    BLACK     BLACK                    AAAA      Not set                  TRTURKEY                   ESSENTIAL ESSENTIAL                1         MAINLINE                 ENTRY     ENTRY                    PLAIN     PLAIN                    ZZZZ      NOT USED                 ZZZZ      NOT USED                 SB        SINGLE BREASTED          MODERN FITMODERN FIT TAILORING     03        MENSWEAR                 ALL       All                      WOOL MIX  WOOL MIX                 PEAK      PEAK LAPEL               ZZZZ      NOT USED                 SS        SS                       01        Suits                    95-00-00  MW TWO PIECE SUIT        1011100   FORMAL BUSINESS MENS     884536     47500    61000     General Clothing         Y5052901989804   125000   125000   95000    95000    68000    68000    68000    68000    68000    68000    713000   713000   68000    68000    42900    42900    68000    68000    4080000  4080000  89500    89500    68000    68000    96500    96500    89500    89500    N                                                                                                                                                                                                        
17102019100001405703036SUITS                         BROMPTON-SB 1B PEAK 2 PC STONE          36        NNNN01    01SUITS                         99Menswear                      92Pick USA stk from w/h 92 only 49SPRING/SUMMER 2019            99 SECONDS DG AND BD   99 1  1  ML1 Swing Tickets            1 2000MO  FORM04    FORMENS                1   1       Single1       Single1       Single0001MW SUITS CORE       01NEW MW SUITING      1 NEW MW MIN SUITING                      1       P47734           0     NNBROMPTON-SB 1B PEAK 2 PC 0        0 NN710648        698545     768400         698545     29500    45000    060220191202201923022019080820196203110000   N0         SS19      SS19                     GRP 2     GRP 2                    GREY      GREY                     AAAA      Not set                  UAUKRAINE                  AAAA      Not set                  1         MAINLINE                 ENTRY     ENTRY                    PLAIN     PLAIN                    ZZZZ      NOT USED                 ZZZZ      NOT USED                 SB        SINGLE BREASTED          SLIM FIT  SLIM FIT                 03        MENSWEAR                 TOP       Top                      ZZZZ      NOT USED                 PEAK      PEAK LAPEL               ZZZZ      NOT USED                 SS        SS                       01        Suits                    95-00-00  MW TWO PIECE SUIT        1011100   FORMAL BUSINESS MENS     710633     45000    61000     General Clothing         Y5054832157741   47500    118000   59000    89500    34000    64500    42500    64500    34000    64500    355000   676000   42500    64500    27000    40600    34000    64500    3870000  3870000  44500    85000    34000    64500    48000    91500    44500    84500    N                                                                                                                                                                                                        
17102019100001405703038SUITS                         BROMPTON-SB 1B PEAK 2 PC STONE          38        NNNN01    01SUITS                         99Menswear                      92Pick USA stk from w/h 92 only 49SPRING/SUMMER 2019            99 SECONDS DG AND BD   99 1  1  ML1 Swing Tickets            1 2000MO  FORM04    FORMENS                1   1       Single1       Single1       Single0001MW SUITS CORE       01NEW MW SUITING      1 NEW MW MIN SUITING                      1       P47735           0     NNBROMPTON-SB 1B PEAK 2 PC 0        0 NN710647        698545     768400         698545     29500    45000    061220181202201923022019220820196203110000   N0         SS19      SS19                     GRP 2     GRP 2                    GREY      GREY                     AAAA      Not set                  UAUKRAINE                  AAAA      Not set                  1         MAINLINE                 ENTRY     ENTRY                    PLAIN     PLAIN                    ZZZZ      NOT USED                 ZZZZ      NOT USED                 SB        SINGLE BREASTED          SLIM FIT  SLIM FIT                 03        MENSWEAR                 TOP       Top                      ZZZZ      NOT USED                 PEAK      PEAK LAPEL               ZZZZ      NOT USED                 SS        SS                       01        Suits                    95-00-00  MW TWO PIECE SUIT        1011100   FORMAL BUSINESS MENS     710650     45000    61000     General Clothing         Y5054832157758   47500    118000   59000    89500    34000    64500    42500    64500    34000    64500    355000   676000   42500    64500    27000    40600    34000    64500    3870000  3870000  44500    85000    34000    64500    48000    91500    44500    84500    N                                                                                                                                                                                                        
17102019100001405703040SUITS                         BROMPTON-SB 1B PEAK 2 PC STONE          40        NNNN01    01SUITS                         99Menswear                      92Pick USA stk from w/h 92 only 49SPRING/SUMMER 2019            99 SECONDS DG AND BD   99 1  1  ML1 Swing Tickets            1 2000MO  FORM04    FORMENS                1   1       Single1       Single1       Single0001MW SUITS CORE       01NEW MW SUITING      1 NEW MW MIN SUITING                      1       P47736           0     NNBROMPTON-SB 1B PEAK 2 PC 0        0 NN710647        698545     768400         698545     29500    45000    060220191202201903032019020920196203110000   N0         SS19      SS19                     GRP 2     GRP 2                    GREY      GREY                     AAAA      Not set                  UAUKRAINE                  AAAA      Not set                  1         MAINLINE                 ENTRY     ENTRY                    PLAIN     PLAIN                    ZZZZ      NOT USED                 ZZZZ      NOT USED                 SB        SINGLE BREASTED          SLIM FIT  SLIM FIT                 03        MENSWEAR                 TOP       Top                      ZZZZ      NOT USED                 PEAK      PEAK LAPEL               ZZZZ      NOT USED                 SS        SS                       01        Suits                    95-00-00  MW TWO PIECE SUIT        1011100   FORMAL BUSINESS MENS     710650     45000    61000     General Clothing         Y5054832157765   47500    118000   59000    89500    34000    64500    42500    64500    34000    64500    355000   676000   42500    64500    27000    40600    34000    64500    3870000  3870000  44500    85000    34000    64500    48000    91500    44500    84500    N                                                                                                                                                                                                        
17102019100001405703042SUITS                         BROMPTON-SB 1B PEAK 2 PC STONE          42        NNNN01    01SUITS                         99Menswear                      92Pick USA stk from w/h 92 only 49SPRING/SUMMER 2019            99 SECONDS DG AND BD   99 1  1  ML1 Swing Tickets            1 2000MO  FORM04    FORMENS                1   1       Single1       Single1       Single0001MW SUITS CORE       01NEW MW SUITING      1 NEW MW MIN SUITING                      1       P47737           0     NNBROMPTON-SB 1B PEAK 2 PC 0        0 NN710645        698545     768400         698545     29500    45000    060220191202201901032019091020196203110000   N0         SS19      SS19                     GRP 2     GRP 2                    GREY      GREY                     AAAA      Not set                  UAUKRAINE                  AAAA      Not set                  1         MAINLINE                 ENTRY     ENTRY                    PLAIN     PLAIN                    ZZZZ      NOT USED                 ZZZZ      NOT USED                 SB        SINGLE BREASTED          SLIM FIT  SLIM FIT                 03        MENSWEAR                 TOP       Top                      ZZZZ      NOT USED                 PEAK      PEAK LAPEL               ZZZZ      NOT USED                 SS        SS                       01        Suits                    95-00-00  MW TWO PIECE SUIT        1011100   FORMAL BUSINESS MENS     710633     45000    61000     General Clothing         Y5054832157772   47500    118000   59000    89500    34000    64500    42500    64500    34000    64500    355000   676000   42500    64500    27000    40600    34000    64500    3870000  3870000  44500    85000    34000    64500    48000    91500    44500    84500    N                                                                                                                                                                                                        
17102019100001405703044SUITS                         BROMPTON-SB 1B PEAK 2 PC STONE          44        NNNN01    01SUITS                         99Menswear                      92Pick USA stk from w/h 92 only 49SPRING/SUMMER 2019            99 SECONDS DG AND BD   99 1  1  ML1 Swing Tickets            1 2000MO  FORM04    FORMENS                1   1       Single1       Single1       Single0001MW SUITS CORE       01NEW MW SUITING      1 NEW MW MIN SUITING                      1       P47738           0     NNBROMPTON-SB 1B PEAK 2 PC 0        0 NN710644        698545     768400         698545     29500    45000    060220191202201924032019131020196203110000   N0         SS19      SS19                     GRP 2     GRP 2                    GREY      GREY                     AAAA      Not set                  UAUKRAINE                  AAAA      Not set                  1         MAINLINE                 ENTRY     ENTRY                    PLAIN     PLAIN                    ZZZZ      NOT USED                 ZZZZ      NOT USED                 SB        SINGLE BREASTED          SLIM FIT  SLIM FIT                 03        MENSWEAR                 TOP       Top                      ZZZZ      NOT USED                 PEAK      PEAK LAPEL               ZZZZ      NOT USED                 SS        SS                       01        Suits                    95-00-00  MW TWO PIECE SUIT        1011100   FORMAL BUSINESS MENS     710633     45000    61000     General Clothing         Y5054832157789   47500    118000   59000    89500    34000    64500    42500    64500    34000    64500    355000   676000   42500    64500    27000    40600    34000    64500    3870000  3870000  44500    85000    34000    64500    48000    91500    44500    84500    N                                                                                                                                                                                                        
17102019100001405703046SUITS                         BROMPTON-SB 1B PEAK 2 PC STONE          46        NNNN01    01SUITS                         99Menswear                      92Pick USA stk from w/h 92 only 49SPRING/SUMMER 2019            99 SECONDS DG AND BD   99 1  1  ML1 Swing Tickets            1 2000MO  FORM04    FORMENS                1   1       Single1       Single1       Single0001MW SUITS CORE       01NEW MW SUITING      1 NEW MW MIN SUITING                      1       P47739           0     NNBROMPTON-SB 1B PEAK 2 PC 0        0 NN710644        698545     768400         698545     29500    45000    060220191202201929032019131020196203110000   N0         SS19      SS19                     GRP 2     GRP 2                    GREY      GREY                     AAAA      Not set                  UAUKRAINE                  AAAA      Not set                  1         MAINLINE                 ENTRY     ENTRY                    PLAIN     PLAIN                    ZZZZ      NOT USED                 ZZZZ      NOT USED                 SB        SINGLE BREASTED          SLIM FIT  SLIM FIT                 03        MENSWEAR                 TOP       Top                      ZZZZ      NOT USED                 PEAK      PEAK LAPEL               ZZZZ      NOT USED                 SS        SS                       01        Suits                    95-00-00  MW TWO PIECE SUIT        1011100   FORMAL BUSINESS MENS     710633     45000    61000     General Clothing         Y5054832157796   47500    118000   59000    89500    34000    64500    42500    64500    34000    64500    355000   676000   42500    64500    27000    40600    34000    64500    3870000  3870000  44500    85000    34000    64500    48000    91500    44500    84500    N                                                                                                                                                                                                        
17102019100001405757036SUITS                         BROMPTON-SB 1B PEAK 2 PC SAGE GREEN     36        NNNN01    01SUITS                         99Menswear                      92Pick USA stk from w/h 92 only 49SPRING/SUMMER 2019            99 SECONDS DG AND BD   99 1  1  ML1 Swing Tickets            1 2000MO  FORM04    FORMENS                1   1       Single1       Single1       Single0001MW SUITS CORE       01NEW MW SUITING      1 NEW MW MIN SUITING                      1       P47746           0     NNBROMPTON-SB 1B PEAK 2 PC 0        0 NN710638        698545     768400         698545     22500    45000    150220192002201920032019151020196203110000   N0         SS19      SS19                     GRP 2     GRP 2                    GREEN     GREEN                    AAAA      Not set                  UAUKRAINE                  AAAA      Not set                  1         MAINLINE                 ENTRY     ENTRY                    PLAIN     PLAIN                    ZZZZ      NOT USED                 ZZZZ      NOT USED                 SB        SINGLE BREASTED          SLIM FIT  SLIM FIT                 03        MENSWEAR                 TOP       Top                      ZZZZ      NOT USED                 PEAK      PEAK LAPEL               ZZZZ      NOT USED                 SS        SS                       01        Suits                    95-00-00  MW TWO PIECE SUIT        1011100   FORMAL BUSINESS MENS     710650     45000    61000     General Clothing         Y5054832157864   118000   118000   45000    89500    26000    64500    32500    64500    26000    64500    270500   676000   32500    64500    20500    40600    26000    64500    3870000  3870000  34000    85000    26000    64500    37000    91500    34000    84500    N                                                                                                                                                                                                        
17102019100001405757038SUITS                         BROMPTON-SB 1B PEAK 2 PC SAGE GREEN     38        NNNN01    01SUITS                         99Menswear                      92Pick USA stk from w/h 92 only 49SPRING/SUMMER 2019            99 SECONDS DG AND BD   99 1  1  ML1 Swing Tickets            1 2000MO  FORM04    FORMENS                1   1       Single1       Single1       Single0001MW SUITS CORE       01NEW MW SUITING      1 NEW MW MIN SUITING                      1       P47747           0     NNBROMPTON-SB 1B PEAK 2 PC 0        0 NN710649        698545     768400         698545     22500    45000    110220192002201926022019111020196203110000   N0         SS19      SS19                     GRP 2     GRP 2                    GREEN     GREEN                    AAAA      Not set                  UAUKRAINE                  AAAA      Not set                  1         MAINLINE                 ENTRY     ENTRY                    PLAIN     PLAIN                    ZZZZ      NOT USED                 ZZZZ      NOT USED                 SB        SINGLE BREASTED          SLIM FIT  SLIM FIT                 03        MENSWEAR                 TOP       Top                      ZZZZ      NOT USED                 PEAK      PEAK LAPEL               ZZZZ      NOT USED                 SS        SS                       01        Suits                    95-00-00  MW TWO PIECE SUIT        1011100   FORMAL BUSINESS MENS     710650     45000    61000     General Clothing         Y5054832157871   118000   118000   45000    89500    26000    64500    32500    64500    26000    64500    270500   676000   32500    64500    20500    40600    26000    64500    3870000  3870000  34000    85000    26000    64500    37000    91500    34000    84500    N                                                                                                                                                                                                        
17102019100001405757040SUITS                         BROMPTON-SB 1B PEAK 2 PC SAGE GREEN     40        NNNN01    01SUITS                         99Menswear                      92Pick USA stk from w/h 92 only 49SPRING/SUMMER 2019            99 SECONDS DG AND BD   99 1  1  ML1 Swing Tickets            1 2000MO  FORM04    FORMENS                1   1       Single1       Single1       Single0001MW SUITS CORE       01NEW MW SUITING      1 NEW MW MIN SUITING                      1       P47748           0     NNBROMPTON-SB 1B PEAK 2 PC 0        0 NN710645        698545     768400         698545     22500    45000    150220192002201921022019131020196203110000   N0         SS19      SS19                     GRP 2     GRP 2                    GREEN     GREEN                    AAAA      Not set                  UAUKRAINE                  AAAA      Not set                  1         MAINLINE                 ENTRY     ENTRY                    PLAIN     PLAIN                    ZZZZ      NOT USED                 ZZZZ      NOT USED                 SB        SINGLE BREASTED          SLIM FIT  SLIM FIT                 03        MENSWEAR                 TOP       Top                      ZZZZ      NOT USED                 PEAK      PEAK LAPEL               ZZZZ      NOT USED                 SS        SS                       01        Suits                    95-00-00  MW TWO PIECE SUIT        1011100   FORMAL BUSINESS MENS     710650     45000    61000     General Clothing         Y5054832157888   118000   118000   45000    89500    26000    64500    32500    64500    26000    64500    270500   676000   32500    64500    20500    40600    26000    64500    3870000  3870000  34000    85000    26000    64500    37000    91500    34000    84500    N                                                                                                                                                                                                        
17102019100001405757042SUITS                         BROMPTON-SB 1B PEAK 2 PC SAGE GREEN     42        NNNN01    01SUITS                         99Menswear                      92Pick USA stk from w/h 92 only 49SPRING/SUMMER 2019            99 SECONDS DG AND BD   99 1  1  ML1 Swing Tickets            1 2000MO  FORM04    FORMENS                1   1       Single1       Single1       Single0001MW SUITS CORE       01NEW MW SUITING      1 NEW MW MIN SUITING                      1       P47750           0     NNBROMPTON-SB 1B PEAK 2 PC 0        0 NN710643        698545     768400         698545     22500    45000    150220192002201904032019121020196203110000   N0         SS19      SS19                     GRP 2     GRP 2                    GREEN     GREEN                    AAAA      Not set                  UAUKRAINE                  AAAA      Not set                  1         MAINLINE                 ENTRY     ENTRY                    PLAIN     PLAIN                    ZZZZ      NOT USED                 ZZZZ      NOT USED                 SB        SINGLE BREASTED          SLIM FIT  SLIM FIT                 03        MENSWEAR                 TOP       Top                      ZZZZ      NOT USED                 PEAK      PEAK LAPEL               ZZZZ      NOT USED                 SS        SS                       01        Suits                    95-00-00  MW TWO PIECE SUIT        1011100   FORMAL BUSINESS MENS     710650     45000    61000     General Clothing         Y5054832157895   118000   118000   45000    89500    26000    64500    32500    64500    26000    64500    270500   676000   32500    64500    20500    40600    26000    64500    3870000  3870000  34000    85000    26000    64500    37000    91500    34000    84500    N                                                                                                                                                                                                        
17102019100001405757044SUITS                         BROMPTON-SB 1B PEAK 2 PC SAGE GREEN     44        NNNN01    01SUITS                         99Menswear                      92Pick USA stk from w/h 92 only 49SPRING/SUMMER 2019            99 SECONDS DG AND BD   99 1  1  ML1 Swing Tickets            1 2000MO  FORM04    FORMENS                1   1       Single1       Single1       Single0001MW SUITS CORE       01NEW MW SUITING      1 NEW MW MIN SUITING                      1       P47751           0     NNBROMPTON-SB 1B PEAK 2 PC 0        0 NN710645        698545     768400         698545     22500    45000    150220192002201918032019131020196203110000   N0         SS19      SS19                     GRP 2     GRP 2                    GREEN     GREEN                    AAAA      Not set                  UAUKRAINE                  AAAA      Not set                  1         MAINLINE                 ENTRY     ENTRY                    PLAIN     PLAIN                    ZZZZ      NOT USED                 ZZZZ      NOT USED                 SB        SINGLE BREASTED          SLIM FIT  SLIM FIT                 03        MENSWEAR                 TOP       Top                      ZZZZ      NOT USED                 PEAK      PEAK LAPEL               ZZZZ      NOT USED                 SS        SS                       01        Suits                    95-00-00  MW TWO PIECE SUIT        1011100   FORMAL BUSINESS MENS     710650     45000    61000     General Clothing         Y5054832157901   118000   118000   45000    89500    26000    64500    32500    64500    26000    64500    270500   676000   32500    64500    20500    40600    26000    64500    3870000  3870000  34000    85000    26000    64500    37000    91500    34000    84500    N                                                                                                                                                                                                        
17102019100001405757046SUITS                         BROMPTON-SB 1B PEAK 2 PC SAGE GREEN     46        NNNN01    01SUITS                         99Menswear                      92Pick USA stk from w/h 92 only 49SPRING/SUMMER 2019            99 SECONDS DG AND BD   99 1  1  ML1 Swing Tickets            1 2000MO  FORM04    FORMENS                1   1       Single1       Single1       Single0001MW SUITS CORE       01NEW MW SUITING      1 NEW MW MIN SUITING                      1       P47752           0     NNBROMPTON-SB 1B PEAK 2 PC 0        0 NN710643        698545     768400         698545     22500    45000    150220192002201906032019161020196203110000   N0         SS19      SS19                     GRP 2     GRP 2                    GREEN     GREEN                    AAAA      Not set                  UAUKRAINE                  AAAA      Not set                  1         MAINLINE                 ENTRY     ENTRY                    PLAIN     PLAIN                    ZZZZ      NOT USED                 ZZZZ      NOT USED                 SB        SINGLE BREASTED          SLIM FIT  SLIM FIT                 03        MENSWEAR                 TOP       Top                      ZZZZ      NOT USED                 PEAK      PEAK LAPEL               ZZZZ      NOT USED                 SS        SS                       01        Suits                    95-00-00  MW TWO PIECE SUIT        1011100   FORMAL BUSINESS MENS     710650     45000    61000     General Clothing         Y5054832157918   118000   118000   45000    89500    26000    64500    32500    64500    26000    64500    270500   676000   32500    64500    20500    40600    26000    64500    3870000  3870000  34000    85000    26000    64500    37000    91500    34000    84500    N                                                                                                                                                                                                        
17102019100001405830036SUITS                         WASHINGTON-SB 1B PEAK 3 PNAVY           36        NNNN01    01SUITS                         99Menswear                      92Pick USA stk from w/h 92 only 59AUTUMN/WINTER 2019            99 SECONDS DG AND BD   99 1  1  ML1 Swing Tickets            1 2000MO  FORM04    FORMENS                1   1       Single1       Single1       Single0001MW SUITS CORE       01NEW MW SUITING      1 NEW MW MIN SUITING                      1       P47753           0     NNWASHINGTON-SB 1B PEAK 3 P0        0 NN1007554       995454     1095000        995454     52500    52500    301120181505201904122018121020196203110000   N0         SS19      SS19                     GRP REPEATGRP REPEAT               NAVY      NAVY                     AAAA      Not set                  UAUKRAINE                  AAAA      Not set                  1         MAINLINE                 EXIT      EXIT                     PLAIN     PLAIN                    ZZZZ      NOT USED                 ZZZZ      NOT USED                 SB        SINGLE BREASTED          MODERN FITMODERN FIT TAILORING     03        MENSWEAR                 ALL       All                      WOOL MIX  WOOL MIX                 PEAK      PEAK LAPEL               ZZZZ      NOT USED                 SS        SS                       01        Suits                    95-00-01  MW THREE PIECE SUIT      1011100   FORMAL BUSINESS MENS     1007550    52500    61000     General Clothing         Y5054832157925   138000   138000   105500   105500   74500    74500    74500    74500    74500    74500    788000   788000   74500    74500    47400    47400    74500    74500    4940000  4940000  99000    99000    74500    74500    106500   106500   99000    99000    N                                                                                                                                                                                                        
17102019100001405830038SUITS                         WASHINGTON-SB 1B PEAK 3 PNAVY           38        NNNN01    01SUITS                         99Menswear                      92Pick USA stk from w/h 92 only 59AUTUMN/WINTER 2019            99 SECONDS DG AND BD   99 1  1  ML1 Swing Tickets            1 2000MO  FORM04    FORMENS                1   1       Single1       Single1       Single0001MW SUITS CORE       01NEW MW SUITING      1 NEW MW MIN SUITING                      1       P47754           0     NNWASHINGTON-SB 1B PEAK 3 P0        0 NN1007554       995454     1095000        995454     52500    52500    211120181505201904122018161020196203110000   N0         SS19      SS19                     GRP REPEATGRP REPEAT               NAVY      NAVY                     AAAA      Not set                  UAUKRAINE                  AAAA      Not set                  1         MAINLINE                 EXIT      EXIT                     PLAIN     PLAIN                    ZZZZ      NOT USED                 ZZZZ      NOT USED                 SB        SINGLE BREASTED          MODERN FITMODERN FIT TAILORING     03        MENSWEAR                 ALL       All                      WOOL MIX  WOOL MIX                 PEAK      PEAK LAPEL               ZZZZ      NOT USED                 SS        SS                       01        Suits                    95-00-01  MW THREE PIECE SUIT      1011100   FORMAL BUSINESS MENS     1007550    52500    61000     General Clothing         Y5054832157932   138000   138000   105500   105500   74500    74500    74500    74500    74500    74500    788000   788000   74500    74500    47400    47400    74500    74500    4940000  4940000  99000    99000    74500    74500    106500   106500   99000    99000    N                                                                                                                                                                                                        
17102019100001405830040SUITS                         WASHINGTON-SB 1B PEAK 3 PNAVY           40        NNNN01    01SUITS                         99Menswear                      92Pick USA stk from w/h 92 only 59AUTUMN/WINTER 2019            99 SECONDS DG AND BD   99 1  1  ML1 Swing Tickets            1 2000MO  FORM04    FORMENS                1   1       Single1       Single1       Single0001MW SUITS CORE       01NEW MW SUITING      1 NEW MW MIN SUITING                      1       P47755           0     NNWASHINGTON-SB 1B PEAK 3 P0        0 NN1007553       995454     1095000        995454     52500    52500    301120181505201927122018161020196203110000   N0         SS19      SS19                     GRP REPEATGRP REPEAT               NAVY      NAVY                     AAAA      Not set                  UAUKRAINE                  AAAA      Not set                  1         MAINLINE                 EXIT      EXIT                     PLAIN     PLAIN                    ZZZZ      NOT USED                 ZZZZ      NOT USED                 SB        SINGLE BREASTED          MODERN FITMODERN FIT TAILORING     03        MENSWEAR                 ALL       All                      WOOL MIX  WOOL MIX                 PEAK      PEAK LAPEL               ZZZZ      NOT USED                 SS        SS                       01        Suits                    95-00-01  MW THREE PIECE SUIT      1011100   FORMAL BUSINESS MENS     1007550    52500    61000     General Clothing         Y5054832157949   138000   138000   105500   105500   74500    74500    74500    74500    74500    74500    788000   788000   74500    74500    47400    47400    74500    74500    4940000  4940000  99000    99000    74500    74500    106500   106500   99000    99000    N                                                                                                                                                                                                        
17102019100001405830042SUITS                         WASHINGTON-SB 1B PEAK 3 PNAVY           42        NNNN01    01SUITS                         99Menswear                      92Pick USA stk from w/h 92 only 59AUTUMN/WINTER 2019            99 SECONDS DG AND BD   99 1  1  ML1 Swing Tickets            1 2000MO  FORM04    FORMENS                1   1       Single1       Single1       Single0001MW SUITS CORE       01NEW MW SUITING      1 NEW MW MIN SUITING                      1       P47756           0     NNWASHINGTON-SB 1B PEAK 3 P0        0 NN1007554       995454     1095000        995454     52500    52500    301120181505201914122018111020196203110000   N0         SS19      SS19                     GRP REPEATGRP REPEAT               NAVY      NAVY                     AAAA      Not set                  UAUKRAINE                  AAAA      Not set                  1         MAINLINE                 EXIT      EXIT                     PLAIN     PLAIN                    ZZZZ      NOT USED                 ZZZZ      NOT USED                 SB        SINGLE BREASTED          MODERN FITMODERN FIT TAILORING     03        MENSWEAR                 ALL       All                      WOOL MIX  WOOL MIX                 PEAK      PEAK LAPEL               ZZZZ      NOT USED                 SS        SS                       01        Suits                    95-00-01  MW THREE PIECE SUIT      1011100   FORMAL BUSINESS MENS     1007550    52500    61000     General Clothing         Y5054832157956   138000   138000   105500   105500   74500    74500    74500    74500    74500    74500    788000   788000   74500    74500    47400    47400    74500    74500    4940000  4940000  99000    99000    74500    74500    106500   106500   99000    99000    N                                                                                                                                                                                                        
17102019100001405830044SUITS                         WASHINGTON-SB 1B PEAK 3 PNAVY           44        NNNN01    01SUITS                         99Menswear                      92Pick USA stk from w/h 92 only 59AUTUMN/WINTER 2019            99 SECONDS DG AND BD   99 1  1  ML1 Swing Tickets            1 2000MO  FORM04    FORMENS                1   1       Single1       Single1       Single0001MW SUITS CORE       01NEW MW SUITING      1 NEW MW MIN SUITING                      1       P47757           0     NNWASHINGTON-SB 1B PEAK 3 P0        0 NN1007552       995454     1095000        995454     52500    52500    301120181505201925012019041020196203110000   N0         SS19      SS19                     GRP REPEATGRP REPEAT               NAVY      NAVY                     AAAA      Not set                  UAUKRAINE                  AAAA      Not set                  1         MAINLINE                 EXIT      EXIT                     PLAIN     PLAIN                    ZZZZ      NOT USED                 ZZZZ      NOT USED                 SB        SINGLE BREASTED          MODERN FITMODERN FIT TAILORING     03        MENSWEAR                 ALL       All                      WOOL MIX  WOOL MIX                 PEAK      PEAK LAPEL               ZZZZ      NOT USED                 SS        SS                       01        Suits                    95-00-01  MW THREE PIECE SUIT      1011100   FORMAL BUSINESS MENS     1007550    52500    61000     General Clothing         Y5054832157963   138000   138000   105500   105500   74500    74500    74500    74500    74500    74500    788000   788000   74500    74500    47400    47400    74500    74500    4940000  4940000  99000    99000    74500    74500    106500   106500   99000    99000    N                                                                                                                                                                                                        
17102019100001405830046SUITS                         WASHINGTON-SB 1B PEAK 3 PNAVY           46        NNNN01    01SUITS                         99Menswear                      92Pick USA stk from w/h 92 only 59AUTUMN/WINTER 2019            99 SECONDS DG AND BD   99 1  1  ML1 Swing Tickets            1 2000MO  FORM04    FORMENS                1   1       Single1       Single1       Single0001MW SUITS CORE       01NEW MW SUITING      1 NEW MW MIN SUITING                      1       P47758           0     NNWASHINGTON-SB 1B PEAK 3 P0        0 NN1007553       995454     1095000        995454     52500    52500    301120181505201909022019190920196203110000   N0         SS19      SS19                     GRP REPEATGRP REPEAT               NAVY      NAVY                     AAAA      Not set                  UAUKRAINE                  AAAA      Not set                  1         MAINLINE                 EXIT      EXIT                     PLAIN     PLAIN                    ZZZZ      NOT USED                 ZZZZ      NOT USED                 SB        SINGLE BREASTED          MODERN FITMODERN FIT TAILORING     03        MENSWEAR                 ALL       All                      WOOL MIX  WOOL MIX                 PEAK      PEAK LAPEL               ZZZZ      NOT USED                 SS        SS                       01        Suits                    95-00-01  MW THREE PIECE SUIT      1011100   FORMAL BUSINESS MENS     1007550    52500    61000     General Clothing         Y5054832157970   138000   138000   105500   105500   74500    74500    74500    74500    74500    74500    788000   788000   74500    74500    47400    47400    74500    74500    4940000  4940000  99000    99000    74500    74500    106500   106500   99000    99000    N                                                                                                                                                                                                        
17102019100001405932036SUITS                         HUGO -2B PEAK 2pc PINSTRIAIRFORCE BLUE  36        NNNN01    01SUITS                         99Menswear                      92Pick USA stk from w/h 92 only 49SPRING/SUMMER 2019            99 SECONDS DG AND BD   99 1  1  ML1 Swing Tickets            1 2000MO  FORM04    FORMENS                1   1       Single1       Single1       Single0450OUTLETS MAINLINE    40MENS OUTLET AW      1 SUITS MIN                               1       P47760           0     NNHUGO -DB PEAK 2 PC PINSTR0        0 NN777191        765090     841600         765090     24500    47500    230120192701201903022019121020196203110000   N0         SS19      SS19                     GRP 1     GRP 1                    BLUE      BLUE                     AAAA      Not set                  UAUKRAINE                  AAAA      Not set                  1         MAINLINE                 EXIT      EXIT                     PINSTRIPE PINSTRIPE                ZZZZ      NOT USED                 ZZZZ      NOT USED                 SB        SINGLE BREASTED          SLIM FIT  SLIM FIT                 03        MENSWEAR                 MID       Mid                      ZZZZ      NOT USED                 NOTCH     NOTCH LAPEL              ZZZZ      NOT USED                 SS        SS                       01        Suits                    95-00-00  MW TWO PIECE SUIT        1011100   FORMAL BUSINESS MENS     777200     47500    61000     General Clothing         Y5054832157987   42000    125000   59000    95000    34000    68000    42500    68000    34000    68000    354500   713000   42500    68000    22100    42900    34000    68000    4080000  4080000  45000    89500    34000    68000    48000    96500    45000    89500    N                                                                                                                                                                                                        
17102019100001405932038SUITS                         HUGO -2B PEAK 2pc PINSTRIAIRFORCE BLUE  38        NNNN01    01SUITS                         99Menswear                      92Pick USA stk from w/h 92 only 49SPRING/SUMMER 2019            99 SECONDS DG AND BD   99 1  1  ML1 Swing Tickets            1 2000MO  FORM04    FORMENS                1   1       Single1       Single1       Single0450OUTLETS MAINLINE    40MENS OUTLET AW      1 SUITS MIN                               1       P47761           0     NNHUGO -DB PEAK 2 PC PINSTR0        0 NN777192        765090     841600         765090     24500    47500    281220182701201924012019121020196203110000   N0         SS19      SS19                     GRP 1     GRP 1                    BLUE      BLUE                     AAAA      Not set                  UAUKRAINE                  AAAA      Not set                  1         MAINLINE                 EXIT      EXIT                     PINSTRIPE PINSTRIPE                ZZZZ      NOT USED                 ZZZZ      NOT USED                 SB        SINGLE BREASTED          SLIM FIT  SLIM FIT                 03        MENSWEAR                 MID       Mid                      ZZZZ      NOT USED                 NOTCH     NOTCH LAPEL              ZZZZ      NOT USED                 SS        SS                       01        Suits                    95-00-00  MW TWO PIECE SUIT        1011100   FORMAL BUSINESS MENS     777190     47500    61000     General Clothing         Y5054832157994   42000    125000   59000    95000    34000    68000    42500    68000    34000    68000    354500   713000   42500    68000    22100    42900    34000    68000    4080000  4080000  45000    89500    34000    68000    48000    96500    45000    89500    N                                                                                                                                                                                                        
17102019100001405932040SUITS                         HUGO -2B PEAK 2pc PINSTRIAIRFORCE BLUE  40        NNNN01    01SUITS                         99Menswear                      92Pick USA stk from w/h 92 only 49SPRING/SUMMER 2019            99 SECONDS DG AND BD   99 1  1  ML1 Swing Tickets            1 2000MO  FORM04    FORMENS                1   1       Single1       Single1       Single0450OUTLETS MAINLINE    40MENS OUTLET AW      1 SUITS MIN                               1       P47762           0     NNHUGO -DB PEAK 2 PC PINSTR0        0 NN777190        765090     841600         765090     24500    47500    230120192701201931012019131020196203110000   N0         SS19      SS19                     GRP 1     GRP 1                    BLUE      BLUE                     AAAA      Not set                  UAUKRAINE                  AAAA      Not set                  1         MAINLINE                 EXIT      EXIT                     PINSTRIPE PINSTRIPE                ZZZZ      NOT USED                 ZZZZ      NOT USED                 SB        SINGLE BREASTED          SLIM FIT  SLIM FIT                 03        MENSWEAR                 MID       Mid                      ZZZZ      NOT USED                 NOTCH     NOTCH LAPEL              ZZZZ      NOT USED                 SS        SS                       01        Suits                    95-00-00  MW TWO PIECE SUIT        1011100   FORMAL BUSINESS MENS     777190     47500    61000     General Clothing         Y5054832158007   42000    125000   59000    95000    34000    68000    42500    68000    34000    68000    354500   713000   42500    68000    22100    42900    34000    68000    4080000  4080000  45000    89500    34000    68000    48000    96500    45000    89500    N                                                                                                                                                                                                        
17102019100001405932042SUITS                         HUGO -2B PEAK 2pc PINSTRIAIRFORCE BLUE  42        NNNN01    01SUITS                         99Menswear                      92Pick USA stk from w/h 92 only 49SPRING/SUMMER 2019            99 SECONDS DG AND BD   99 1  1  ML1 Swing Tickets            1 2000MO  FORM04    FORMENS                1   1       Single1       Single1       Single0450OUTLETS MAINLINE    40MENS OUTLET AW      1 SUITS MIN                               1       P47763           0     NNHUGO -DB PEAK 2 PC PINSTR0        0 NN777191        765090     841600         765090     24500    47500    230120192701201930012019260920196203110000   N0         SS19      SS19                     GRP 1     GRP 1                    BLUE      BLUE                     AAAA      Not set                  UAUKRAINE                  AAAA      Not set                  1         MAINLINE                 EXIT      EXIT                     PINSTRIPE PINSTRIPE                ZZZZ      NOT USED                 ZZZZ      NOT USED                 SB        SINGLE BREASTED          SLIM FIT  SLIM FIT                 03        MENSWEAR                 MID       Mid                      ZZZZ      NOT USED                 NOTCH     NOTCH LAPEL              ZZZZ      NOT USED                 SS        SS                       01        Suits                    95-00-00  MW TWO PIECE SUIT        1011100   FORMAL BUSINESS MENS     777200     47500    61000     General Clothing         Y5054832158014   42000    125000   59000    95000    34000    68000    42500    68000    34000    68000    354500   713000   42500    68000    22100    42900    34000    68000    4080000  4080000  45000    89500    34000    68000    48000    96500    45000    89500    N                                                                                                                                                                                                        
17102019100001405932044SUITS                         HUGO -2B PEAK 2pc PINSTRIAIRFORCE BLUE  44        NNNN01    01SUITS                         99Menswear                      92Pick USA stk from w/h 92 only 49SPRING/SUMMER 2019            99 SECONDS DG AND BD   99 1  1  ML1 Swing Tickets            1 2000MO  FORM04    FORMENS                1   1       Single1       Single1       Single0450OUTLETS MAINLINE    40MENS OUTLET AW      1 SUITS MIN                               1       P47765           0     NNHUGO -DB PEAK 2 PC PINSTR0        0 NN777192        765090     841600         765090     24500    47500    230120192701201918022019131020196203110000   N0         SS19      SS19                     GRP 1     GRP 1                    BLUE      BLUE                     AAAA      Not set                  UAUKRAINE                  AAAA      Not set                  1         MAINLINE                 EXIT      EXIT                     PINSTRIPE PINSTRIPE                ZZZZ      NOT USED                 ZZZZ      NOT USED                 SB        SINGLE BREASTED          SLIM FIT  SLIM FIT                 03        MENSWEAR                 MID       Mid                      ZZZZ      NOT USED                 NOTCH     NOTCH LAPEL              ZZZZ      NOT USED                 SS        SS                       01        Suits                    95-00-00  MW TWO PIECE SUIT        1011100   FORMAL BUSINESS MENS     777200     47500    61000     General Clothing         Y5054832158021   42000    125000   59000    95000    34000    68000    42500    68000    34000    68000    354500   713000   42500    68000    22100    42900    34000    68000    4080000  4080000  45000    89500    34000    68000    48000    96500    45000    89500    N                                                                                                                                                                                                        
17102019100001405932046SUITS                         HUGO -2B PEAK 2pc PINSTRIAIRFORCE BLUE  46        NNNN01    01SUITS                         99Menswear                      92Pick USA stk from w/h 92 only 49SPRING/SUMMER 2019            99 SECONDS DG AND BD   99 1  1  ML1 Swing Tickets            1 2000MO  FORM04    FORMENS                1   1       Single1       Single1       Single0450OUTLETS MAINLINE    40MENS OUTLET AW      1 SUITS MIN                               1       P47766           0     NNHUGO -DB PEAK 2 PC PINSTR0        0 NN777193        765090     841600         765090     24500    47500    230120192701201921042019040920196203110000   N0         SS19      SS19                     GRP 1     GRP 1                    BLUE      BLUE                     AAAA      Not set                  UAUKRAINE                  AAAA      Not set                  1         MAINLINE                 EXIT      EXIT                     PINSTRIPE PINSTRIPE                ZZZZ      NOT USED                 ZZZZ      NOT USED                 SB        SINGLE BREASTED          SLIM FIT  SLIM FIT                 03        MENSWEAR                 MID       Mid                      ZZZZ      NOT USED                 NOTCH     NOTCH LAPEL              ZZZZ      NOT USED                 SS        SS                       01        Suits                    95-00-00  MW TWO PIECE SUIT        1011100   FORMAL BUSINESS MENS     777200     47500    61000     General Clothing         Y5054832158038   42000    125000   59000    95000    34000    68000    42500    68000    34000    68000    354500   713000   42500    68000    22100    42900    34000    68000    4080000  4080000  45000    89500    34000    68000    48000    96500    45000    89500    N                                                                                                                                                                                                        
